:020000020000FC
:1000000000C051E064E078E080E1239A2B98249AC4
:100010002C9807EC00937A0002E600937C00409A4B
:100020000F931F9307E610E00093C4001093C500E0
:1000300008E10093C1001F910F9100E00F931F93FF
:100040001091C00015FFFCCF0091C6000D3011F0DB
:100050000193F6CF1F910F91902F9F34B9F19634F1
:10006000B9F100917A00006400937A0000917A005F
:1000700006FFFCCF00917800109179002F938F93A9
:100080009F932AE08EE39CE90197F1F72A95D1F737
:1000900000009F918F912F911A3FB8F42C98CDCFEB
:1000A0000091010000937C0000917A0000640093AD
:1000B0007A0000917A0006FFFCCF00917800109141
:1000C0007900163918F02B98B8CF2C9A2B9AB5CF07
:0400D0002B98B3CFE7
:00000001FF
